{
  "contractName": "VotingSystem",
  "abi": [
    {
      "inputs": [],
      "stateMutability": "nonpayable",
      "type": "constructor"
    },
    {
      "anonymous": false,
      "inputs": [
        {
          "indexed": false,
          "internalType": "uint256",
          "name": "candidateId",
          "type": "uint256"
        },
        {
          "indexed": false,
          "internalType": "string",
          "name": "name",
          "type": "string"
        }
      ],
      "name": "CandidateAdded",
      "type": "event"
    },
    {
      "anonymous": false,
      "inputs": [
        {
          "indexed": true,
          "internalType": "address",
          "name": "voter",
          "type": "address"
        },
        {
          "indexed": false,
          "internalType": "uint256",
          "name": "candidateId",
          "type": "uint256"
        }
      ],
      "name": "VoteCast",
      "type": "event"
    },
    {
      "inputs": [],
      "name": "admin",
      "outputs": [
        {
          "internalType": "address",
          "name": "",
          "type": "address"
        }
      ],
      "stateMutability": "view",
      "type": "function",
      "constant": true
    },
    {
      "inputs": [
        {
          "internalType": "uint256",
          "name": "",
          "type": "uint256"
        }
      ],
      "name": "candidates",
      "outputs": [
        {
          "internalType": "uint256",
          "name": "id",
          "type": "uint256"
        },
        {
          "internalType": "string",
          "name": "name",
          "type": "string"
        },
        {
          "internalType": "uint256",
          "name": "voteCount",
          "type": "uint256"
        }
      ],
      "stateMutability": "view",
      "type": "function",
      "constant": true
    },
    {
      "inputs": [],
      "name": "candidatesCount",
      "outputs": [
        {
          "internalType": "uint256",
          "name": "",
          "type": "uint256"
        }
      ],
      "stateMutability": "view",
      "type": "function",
      "constant": true
    },
    {
      "inputs": [
        {
          "internalType": "address",
          "name": "",
          "type": "address"
        }
      ],
      "name": "voters",
      "outputs": [
        {
          "internalType": "bool",
          "name": "hasVoted",
          "type": "bool"
        },
        {
          "internalType": "uint256",
          "name": "votedCandidateId",
          "type": "uint256"
        }
      ],
      "stateMutability": "view",
      "type": "function",
      "constant": true
    },
    {
      "inputs": [
        {
          "internalType": "string",
          "name": "_name",
          "type": "string"
        }
      ],
      "name": "addCandidate",
      "outputs": [],
      "stateMutability": "nonpayable",
      "type": "function"
    },
    {
      "inputs": [
        {
          "internalType": "uint256",
          "name": "_candidateId",
          "type": "uint256"
        }
      ],
      "name": "vote",
      "outputs": [],
      "stateMutability": "nonpayable",
      "type": "function"
    },
    {
      "inputs": [],
      "name": "getCandidateCount",
      "outputs": [
        {
          "internalType": "uint256",
          "name": "",
          "type": "uint256"
        }
      ],
      "stateMutability": "view",
      "type": "function",
      "constant": true
    },
    {
      "inputs": [
        {
          "internalType": "uint256",
          "name": "_candidateId",
          "type": "uint256"
        }
      ],
      "name": "getCandidate",
      "outputs": [
        {
          "internalType": "string",
          "name": "",
          "type": "string"
        }
      ],
      "stateMutability": "view",
      "type": "function",
      "constant": true
    },
    {
      "inputs": [
        {
          "internalType": "uint256",
          "name": "_candidateId",
          "type": "uint256"
        }
      ],
      "name": "getVoteCount",
      "outputs": [
        {
          "internalType": "uint256",
          "name": "",
          "type": "uint256"
        }
      ],
      "stateMutability": "view",
      "type": "function",
      "constant": true
    }
  ],
  "bytecode": "0x608060405234801561001057600080fd5b5033600360006101000a81548173ffffffffffffffffffffffffffffffffffffffff021916908373ffffffffffffffffffffffffffffffffffffffff160217905550610f7e806100616000396000f3fe608060405234801561001057600080fd5b50600436106100935760003560e01c806335b8e8201161006657806335b8e82014610122578063462e91ec14610152578063a3ec138d1461016e578063b2c2f2e81461019f578063f851a440146101cf57610093565b80630121b93f146100985780632d35a8a2146100b457806330a56347146100d25780633477ee2e146100f0575b600080fd5b6100b260048036038101906100ad9190610a02565b6101ed565b005b6100bc610412565b6040516100c99190610c3d565b60405180910390f35b6100da610418565b6040516100e79190610c3d565b60405180910390f35b61010a60048036038101906101059190610a02565b610422565b60405161011993929190610c88565b60405180910390f35b61013c60048036038101906101379190610a02565b6104e4565b6040516101499190610bbb565b60405180910390f35b61016c600480360381019061016791906109c1565b610605565b005b61018860048036038101906101839190610998565b610773565b604051610196929190610b92565b60405180910390f35b6101b960048036038101906101b49190610a02565b6107a4565b6040516101c69190610c3d565b60405180910390f35b6101d761083d565b6040516101e49190610b77565b60405180910390f35b6002548110610231576040517f08c379a000000000000000000000000000000000000000000000000000000000815260040161022890610bfd565b60405180910390fd5b6000803373ffffffffffffffffffffffffffffffffffffffff1673ffffffffffffffffffffffffffffffffffffffff16815260200190815260200160002060000160009054906101000a900460ff16156102c0576040517f08c379a00000000000000000000000000000000000000000000000000000000081526004016102b790610c1d565b60405180910390fd5b60016000803373ffffffffffffffffffffffffffffffffffffffff1673ffffffffffffffffffffffffffffffffffffffff16815260200190815260200160002060000160006101000a81548160ff021916908315150217905550806000803373ffffffffffffffffffffffffffffffffffffffff1673ffffffffffffffffffffffffffffffffffffffff168152602001908152602001600020600101819055506001818154811061039a577f4e487b7100000000000000000000000000000000000000000000000000000000600052603260045260246000fd5b906000526020600020906003020160020160008154809291906103bc90610e33565b91905055503373ffffffffffffffffffffffffffffffffffffffff167fa36cc2bebb74db33e9f88110a07ef56e1b31b24b4c4f51b54b1664266e29f45b826040516104079190610c3d565b60405180910390a250565b60025481565b6000600254905090565b6001818154811061043257600080fd5b906000526020600020906003020160009150905080600001549080600101805461045b90610e01565b80601f016020809104026020016040519081016040528092919081815260200182805461048790610e01565b80156104d45780601f106104a9576101008083540402835291602001916104d4565b820191906000526020600020905b8154815290600101906020018083116104b757829003601f168201915b5050505050908060020154905083565b6060600254821061052a576040517f08c379a000000000000000000000000000000000000000000000000000000000815260040161052190610bfd565b60405180910390fd5b60018281548110610564577f4e487b7100000000000000000000000000000000000000000000000000000000600052603260045260246000fd5b9060005260206000209060030201600101805461058090610e01565b80601f01602080910402602001604051908101604052809291908181526020018280546105ac90610e01565b80156105f95780601f106105ce576101008083540402835291602001916105f9565b820191906000526020600020905b8154815290600101906020018083116105dc57829003601f168201915b50505050509050919050565b600360009054906101000a900473ffffffffffffffffffffffffffffffffffffffff1673ffffffffffffffffffffffffffffffffffffffff163373ffffffffffffffffffffffffffffffffffffffff1614610695576040517f08c379a000000000000000000000000000000000000000000000000000000000815260040161068c90610bdd565b60405180910390fd5b60016040518060600160405280600254815260200183815260200160008152509080600181540180825580915050600190039060005260206000209060030201600090919091909150600082015181600001556020820151816001019080519060200190610704929190610863565b506040820151816002015550506002600081548092919061072490610e33565b91905055507fe83b2a43e7e82d975c8a0a6d2f045153c869e111136a34d1889ab7b598e396a360016002546107599190610d43565b82604051610768929190610c58565b60405180910390a150565b60006020528060005260406000206000915090508060000160009054906101000a900460ff16908060010154905082565b600060025482106107ea576040517f08c379a00000000000000000000000000000000000000000000000000000000081526004016107e190610bfd565b60405180910390fd5b60018281548110610824577f4e487b7100000000000000000000000000000000000000000000000000000000600052603260045260246000fd5b9060005260206000209060030201600201549050919050565b600360009054906101000a900473ffffffffffffffffffffffffffffffffffffffff1681565b82805461086f90610e01565b90600052602060002090601f01602090048101928261089157600085556108d8565b82601f106108aa57805160ff19168380011785556108d8565b828001600101855582156108d8579182015b828111156108d75782518255916020019190600101906108bc565b5b5090506108e591906108e9565b5090565b5b808211156109025760008160009055506001016108ea565b5090565b600061091961091484610cf7565b610cc6565b90508281526020810184848401111561093157600080fd5b61093c848285610dbf565b509392505050565b60008135905061095381610f1a565b92915050565b600082601f83011261096a57600080fd5b813561097a848260208601610906565b91505092915050565b60008135905061099281610f31565b92915050565b6000602082840312156109aa57600080fd5b60006109b884828501610944565b91505092915050565b6000602082840312156109d357600080fd5b600082013567ffffffffffffffff8111156109ed57600080fd5b6109f984828501610959565b91505092915050565b600060208284031215610a1457600080fd5b6000610a2284828501610983565b91505092915050565b610a3481610d77565b82525050565b610a4381610d89565b82525050565b6000610a5482610d27565b610a5e8185610d32565b9350610a6e818560208601610dce565b610a7781610f09565b840191505092915050565b6000610a8f602683610d32565b91507f4f6e6c79207468652061646d696e2063616e20706572666f726d20746869732060008301527f616374696f6e00000000000000000000000000000000000000000000000000006020830152604082019050919050565b6000610af5601483610d32565b91507f496e76616c69642063616e6469646174652049440000000000000000000000006000830152602082019050919050565b6000610b35601683610d32565b91507f596f75206861766520616c726561647920766f746564000000000000000000006000830152602082019050919050565b610b7181610db5565b82525050565b6000602082019050610b8c6000830184610a2b565b92915050565b6000604082019050610ba76000830185610a3a565b610bb46020830184610b68565b9392505050565b60006020820190508181036000830152610bd58184610a49565b905092915050565b60006020820190508181036000830152610bf681610a82565b9050919050565b60006020820190508181036000830152610c1681610ae8565b9050919050565b60006020820190508181036000830152610c3681610b28565b9050919050565b6000602082019050610c526000830184610b68565b92915050565b6000604082019050610c6d6000830185610b68565b8181036020830152610c7f8184610a49565b90509392505050565b6000606082019050610c9d6000830186610b68565b8181036020830152610caf8185610a49565b9050610cbe6040830184610b68565b949350505050565b6000604051905081810181811067ffffffffffffffff82111715610ced57610cec610eda565b5b8060405250919050565b600067ffffffffffffffff821115610d1257610d11610eda565b5b601f19601f8301169050602081019050919050565b600081519050919050565b600082825260208201905092915050565b6000610d4e82610db5565b9150610d5983610db5565b925082821015610d6c57610d6b610e7c565b5b828203905092915050565b6000610d8282610d95565b9050919050565b60008115159050919050565b600073ffffffffffffffffffffffffffffffffffffffff82169050919050565b6000819050919050565b82818337600083830152505050565b60005b83811015610dec578082015181840152602081019050610dd1565b83811115610dfb576000848401525b50505050565b60006002820490506001821680610e1957607f821691505b60208210811415610e2d57610e2c610eab565b5b50919050565b6000610e3e82610db5565b91507fffffffffffffffffffffffffffffffffffffffffffffffffffffffffffffffff821415610e7157610e70610e7c565b5b600182019050919050565b7f4e487b7100000000000000000000000000000000000000000000000000000000600052601160045260246000fd5b7f4e487b7100000000000000000000000000000000000000000000000000000000600052602260045260246000fd5b7f4e487b7100000000000000000000000000000000000000000000000000000000600052604160045260246000fd5b6000601f19601f8301169050919050565b610f2381610d77565b8114610f2e57600080fd5b50565b610f3a81610db5565b8114610f4557600080fd5b5056fea2646970667358221220f73d5759b3eb2eb8ef494053fe25c98e218aa084af43276ce157499987a3574b64736f6c63430008000033",
  "immutableReferences": {},
  "source": "// SPDX-License-Identifier: MIT\r\npragma solidity ^0.8.0;\r\n\r\ncontract VotingSystem {\r\n    struct Candidate {\r\n        uint256 id;\r\n        string name;\r\n        uint256 voteCount;\r\n    }\r\n\r\n    struct Voter {\r\n        bool hasVoted;\r\n        uint256 votedCandidateId;\r\n    }\r\n\r\n    mapping(address => Voter) public voters;\r\n    Candidate[] public candidates;\r\n    uint256 public candidatesCount;\r\n    address public admin;\r\n\r\n    event VoteCast(address indexed voter, uint256 candidateId);\r\n    event CandidateAdded(uint256 candidateId, string name);\r\n\r\n    modifier onlyAdmin() {\r\n        require(msg.sender == admin, \"Only the admin can perform this action\");\r\n        _;\r\n    }\r\n\r\n    constructor() {\r\n        admin = msg.sender;\r\n    }\r\n\r\n    function addCandidate(string memory _name) public onlyAdmin {\r\n        candidates.push(Candidate(candidatesCount, _name, 0));\r\n        candidatesCount++;\r\n        emit CandidateAdded(candidatesCount - 1, _name);\r\n    }\r\n\r\n    function vote(uint256 _candidateId) public {\r\n        require(_candidateId < candidatesCount, \"Invalid candidate ID\");\r\n        require(!voters[msg.sender].hasVoted, \"You have already voted\");\r\n\r\n        voters[msg.sender].hasVoted = true;\r\n        voters[msg.sender].votedCandidateId = _candidateId;\r\n        candidates[_candidateId].voteCount++;\r\n\r\n        emit VoteCast(msg.sender, _candidateId);\r\n    }\r\n\r\n    function getCandidateCount() public view returns (uint256) {\r\n        return candidatesCount;\r\n    }\r\n\r\n    function getCandidate(uint256 _candidateId) public view returns (string memory) {\r\n        require(_candidateId < candidatesCount, \"Invalid candidate ID\");\r\n        return candidates[_candidateId].name;\r\n    }\r\n\r\n    function getVoteCount(uint256 _candidateId) public view returns (uint256) {\r\n        require(_candidateId < candidatesCount, \"Invalid candidate ID\");\r\n        return candidates[_candidateId].voteCount;\r\n    }\r\n}\r\n",
  "sourcePath": "E:\\BCT_Solidity\\truffle\\contracts\\voting_contract.sol",
  "compiler": {
    "name": "solc",
    "version": "0.8.0+commit.c7dfd78e.Emscripten.clang"
  },
  "schemaVersion": "3.4.15",
  "updatedAt": "2023-08-06T15:29:49.137Z",
  "networkType": "ethereum",
  "devdoc": {
    "kind": "dev",
    "methods": {},
    "version": 1
  },
  "userdoc": {
    "kind": "user",
    "methods": {},
    "version": 1
  }
}