{
  "contractName": "VotingSystem",
  "abi": [
    {
      "inputs": [],
      "stateMutability": "nonpayable",
      "type": "constructor"
    },
    {
      "anonymous": false,
      "inputs": [
        {
          "indexed": false,
          "internalType": "uint256",
          "name": "candidateId",
          "type": "uint256"
        },
        {
          "indexed": false,
          "internalType": "string",
          "name": "name",
          "type": "string"
        }
      ],
      "name": "CandidateAdded",
      "type": "event"
    },
    {
      "anonymous": false,
      "inputs": [
        {
          "indexed": true,
          "internalType": "address",
          "name": "voter",
          "type": "address"
        },
        {
          "indexed": false,
          "internalType": "uint256",
          "name": "candidateId",
          "type": "uint256"
        }
      ],
      "name": "VoteCast",
      "type": "event"
    },
    {
      "inputs": [],
      "name": "admin",
      "outputs": [
        {
          "internalType": "address",
          "name": "",
          "type": "address"
        }
      ],
      "stateMutability": "view",
      "type": "function",
      "constant": true
    },
    {
      "inputs": [
        {
          "internalType": "uint256",
          "name": "",
          "type": "uint256"
        }
      ],
      "name": "candidates",
      "outputs": [
        {
          "internalType": "uint256",
          "name": "id",
          "type": "uint256"
        },
        {
          "internalType": "string",
          "name": "name",
          "type": "string"
        },
        {
          "internalType": "uint256",
          "name": "voteCount",
          "type": "uint256"
        }
      ],
      "stateMutability": "view",
      "type": "function",
      "constant": true
    },
    {
      "inputs": [],
      "name": "candidatesCount",
      "outputs": [
        {
          "internalType": "uint256",
          "name": "",
          "type": "uint256"
        }
      ],
      "stateMutability": "view",
      "type": "function",
      "constant": true
    },
    {
      "inputs": [
        {
          "internalType": "address",
          "name": "",
          "type": "address"
        }
      ],
      "name": "voters",
      "outputs": [
        {
          "internalType": "bool",
          "name": "hasVoted",
          "type": "bool"
        },
        {
          "internalType": "uint256",
          "name": "votedCandidateId",
          "type": "uint256"
        }
      ],
      "stateMutability": "view",
      "type": "function",
      "constant": true
    },
    {
      "inputs": [
        {
          "internalType": "string",
          "name": "_name",
          "type": "string"
        }
      ],
      "name": "addCandidate",
      "outputs": [],
      "stateMutability": "nonpayable",
      "type": "function"
    },
    {
      "inputs": [
        {
          "internalType": "uint256",
          "name": "_candidateId",
          "type": "uint256"
        }
      ],
      "name": "getCandidate",
      "outputs": [
        {
          "internalType": "string",
          "name": "",
          "type": "string"
        }
      ],
      "stateMutability": "view",
      "type": "function",
      "constant": true
    },
    {
      "inputs": [
        {
          "internalType": "uint256",
          "name": "_candidateId",
          "type": "uint256"
        }
      ],
      "name": "vote",
      "outputs": [],
      "stateMutability": "nonpayable",
      "type": "function"
    },
    {
      "inputs": [
        {
          "internalType": "uint256",
          "name": "_candidateId",
          "type": "uint256"
        }
      ],
      "name": "getVoteCount",
      "outputs": [
        {
          "internalType": "uint256",
          "name": "",
          "type": "uint256"
        }
      ],
      "stateMutability": "view",
      "type": "function",
      "constant": true
    }
  ],
  "bytecode": "0x608060405234801561001057600080fd5b5033600360006101000a81548173ffffffffffffffffffffffffffffffffffffffff021916908373ffffffffffffffffffffffffffffffffffffffff160217905550610ffc806100616000396000f3fe608060405234801561001057600080fd5b50600436106100885760003560e01c8063462e91ec1161005b578063462e91ec14610129578063a3ec138d14610145578063b2c2f2e814610176578063f851a440146101a657610088565b80630121b93f1461008d5780632d35a8a2146100a95780633477ee2e146100c757806335b8e820146100f9575b600080fd5b6100a760048036038101906100a29190610a20565b6101c4565b005b6100b161043a565b6040516100be9190610cbb565b60405180910390f35b6100e160048036038101906100dc9190610a20565b610440565b6040516100f093929190610d06565b60405180910390f35b610113600480360381019061010e9190610a20565b610502565b6040516101209190610c19565b60405180910390f35b610143600480360381019061013e91906109df565b610623565b005b61015f600480360381019061015a91906109b6565b610791565b60405161016d929190610bf0565b60405180910390f35b610190600480360381019061018b9190610a20565b6107c2565b60405161019d9190610cbb565b60405180910390f35b6101ae61085b565b6040516101bb9190610bd5565b60405180910390f35b6002548110610208576040517f08c379a00000000000000000000000000000000000000000000000000000000081526004016101ff90610c7b565b60405180910390fd5b6000803373ffffffffffffffffffffffffffffffffffffffff1673ffffffffffffffffffffffffffffffffffffffff16815260200190815260200160002060000160009054906101000a900460ff1615610297576040517f08c379a000000000000000000000000000000000000000000000000000000000815260040161028e90610c9b565b60405180910390fd5b600081101580156102a9575060038111155b6102e8576040517f08c379a00000000000000000000000000000000000000000000000000000000081526004016102df90610c5b565b60405180910390fd5b60016000803373ffffffffffffffffffffffffffffffffffffffff1673ffffffffffffffffffffffffffffffffffffffff16815260200190815260200160002060000160006101000a81548160ff021916908315150217905550806000803373ffffffffffffffffffffffffffffffffffffffff1673ffffffffffffffffffffffffffffffffffffffff16815260200190815260200160002060010181905550600181815481106103c2577f4e487b7100000000000000000000000000000000000000000000000000000000600052603260045260246000fd5b906000526020600020906003020160020160008154809291906103e490610eb1565b91905055503373ffffffffffffffffffffffffffffffffffffffff167fa36cc2bebb74db33e9f88110a07ef56e1b31b24b4c4f51b54b1664266e29f45b8260405161042f9190610cbb565b60405180910390a250565b60025481565b6001818154811061045057600080fd5b906000526020600020906003020160009150905080600001549080600101805461047990610e7f565b80601f01602080910402602001604051908101604052809291908181526020018280546104a590610e7f565b80156104f25780601f106104c7576101008083540402835291602001916104f2565b820191906000526020600020905b8154815290600101906020018083116104d557829003601f168201915b5050505050908060020154905083565b60606002548210610548576040517f08c379a000000000000000000000000000000000000000000000000000000000815260040161053f90610c7b565b60405180910390fd5b60018281548110610582577f4e487b7100000000000000000000000000000000000000000000000000000000600052603260045260246000fd5b9060005260206000209060030201600101805461059e90610e7f565b80601f01602080910402602001604051908101604052809291908181526020018280546105ca90610e7f565b80156106175780601f106105ec57610100808354040283529160200191610617565b820191906000526020600020905b8154815290600101906020018083116105fa57829003601f168201915b50505050509050919050565b600360009054906101000a900473ffffffffffffffffffffffffffffffffffffffff1673ffffffffffffffffffffffffffffffffffffffff163373ffffffffffffffffffffffffffffffffffffffff16146106b3576040517f08c379a00000000000000000000000000000000000000000000000000000000081526004016106aa90610c3b565b60405180910390fd5b60016040518060600160405280600254815260200183815260200160008152509080600181540180825580915050600190039060005260206000209060030201600090919091909150600082015181600001556020820151816001019080519060200190610722929190610881565b506040820151816002015550506002600081548092919061074290610eb1565b91905055507fe83b2a43e7e82d975c8a0a6d2f045153c869e111136a34d1889ab7b598e396a360016002546107779190610dc1565b82604051610786929190610cd6565b60405180910390a150565b60006020528060005260406000206000915090508060000160009054906101000a900460ff16908060010154905082565b60006002548210610808576040517f08c379a00000000000000000000000000000000000000000000000000000000081526004016107ff90610c7b565b60405180910390fd5b60018281548110610842577f4e487b7100000000000000000000000000000000000000000000000000000000600052603260045260246000fd5b9060005260206000209060030201600201549050919050565b600360009054906101000a900473ffffffffffffffffffffffffffffffffffffffff1681565b82805461088d90610e7f565b90600052602060002090601f0160209004810192826108af57600085556108f6565b82601f106108c857805160ff19168380011785556108f6565b828001600101855582156108f6579182015b828111156108f55782518255916020019190600101906108da565b5b5090506109039190610907565b5090565b5b80821115610920576000816000905550600101610908565b5090565b600061093761093284610d75565b610d44565b90508281526020810184848401111561094f57600080fd5b61095a848285610e3d565b509392505050565b60008135905061097181610f98565b92915050565b600082601f83011261098857600080fd5b8135610998848260208601610924565b91505092915050565b6000813590506109b081610faf565b92915050565b6000602082840312156109c857600080fd5b60006109d684828501610962565b91505092915050565b6000602082840312156109f157600080fd5b600082013567ffffffffffffffff811115610a0b57600080fd5b610a1784828501610977565b91505092915050565b600060208284031215610a3257600080fd5b6000610a40848285016109a1565b91505092915050565b610a5281610df5565b82525050565b610a6181610e07565b82525050565b6000610a7282610da5565b610a7c8185610db0565b9350610a8c818560208601610e4c565b610a9581610f87565b840191505092915050565b6000610aad602683610db0565b91507f4f6e6c79207468652061646d696e2063616e20706572666f726d20746869732060008301527f616374696f6e00000000000000000000000000000000000000000000000000006020830152604082019050919050565b6000610b13601b83610db0565b91507f496e76616c69642063616e6469646174652073656c656374696f6e00000000006000830152602082019050919050565b6000610b53601483610db0565b91507f496e76616c69642063616e6469646174652049440000000000000000000000006000830152602082019050919050565b6000610b93601683610db0565b91507f596f75206861766520616c726561647920766f746564000000000000000000006000830152602082019050919050565b610bcf81610e33565b82525050565b6000602082019050610bea6000830184610a49565b92915050565b6000604082019050610c056000830185610a58565b610c126020830184610bc6565b9392505050565b60006020820190508181036000830152610c338184610a67565b905092915050565b60006020820190508181036000830152610c5481610aa0565b9050919050565b60006020820190508181036000830152610c7481610b06565b9050919050565b60006020820190508181036000830152610c9481610b46565b9050919050565b60006020820190508181036000830152610cb481610b86565b9050919050565b6000602082019050610cd06000830184610bc6565b92915050565b6000604082019050610ceb6000830185610bc6565b8181036020830152610cfd8184610a67565b90509392505050565b6000606082019050610d1b6000830186610bc6565b8181036020830152610d2d8185610a67565b9050610d3c6040830184610bc6565b949350505050565b6000604051905081810181811067ffffffffffffffff82111715610d6b57610d6a610f58565b5b8060405250919050565b600067ffffffffffffffff821115610d9057610d8f610f58565b5b601f19601f8301169050602081019050919050565b600081519050919050565b600082825260208201905092915050565b6000610dcc82610e33565b9150610dd783610e33565b925082821015610dea57610de9610efa565b5b828203905092915050565b6000610e0082610e13565b9050919050565b60008115159050919050565b600073ffffffffffffffffffffffffffffffffffffffff82169050919050565b6000819050919050565b82818337600083830152505050565b60005b83811015610e6a578082015181840152602081019050610e4f565b83811115610e79576000848401525b50505050565b60006002820490506001821680610e9757607f821691505b60208210811415610eab57610eaa610f29565b5b50919050565b6000610ebc82610e33565b91507fffffffffffffffffffffffffffffffffffffffffffffffffffffffffffffffff821415610eef57610eee610efa565b5b600182019050919050565b7f4e487b7100000000000000000000000000000000000000000000000000000000600052601160045260246000fd5b7f4e487b7100000000000000000000000000000000000000000000000000000000600052602260045260246000fd5b7f4e487b7100000000000000000000000000000000000000000000000000000000600052604160045260246000fd5b6000601f19601f8301169050919050565b610fa181610df5565b8114610fac57600080fd5b50565b610fb881610e33565b8114610fc357600080fd5b5056fea26469706673582212202b8a307a495737a3609b7c1babb98485f8c043a35095959a31b7bc79e0140ea464736f6c63430008000033",
  "immutableReferences": {},
  "source": "// SPDX-License-Identifier: MIT\r\npragma solidity ^0.8.0;\r\n\r\ncontract VotingSystem {\r\n    struct Candidate {\r\n        uint256 id;\r\n        string name;\r\n        uint256 voteCount;\r\n    }\r\n\r\n    struct Voter {\r\n        bool hasVoted;\r\n        uint256 votedCandidateId;\r\n    }\r\n\r\n    mapping(address => Voter) public voters;\r\n    Candidate[] public candidates;\r\n    uint256 public candidatesCount;\r\n    address public admin;\r\n\r\n    event VoteCast(address indexed voter, uint256 candidateId);\r\n    event CandidateAdded(uint256 candidateId, string name);\r\n\r\n    modifier onlyAdmin() {\r\n        require(msg.sender == admin, \"Only the admin can perform this action\");\r\n        _;\r\n    }\r\n\r\n    function addCandidate(string memory _name) public onlyAdmin {\r\n        candidates.push(Candidate(candidatesCount, _name, 0));\r\n        candidatesCount++;\r\n        emit CandidateAdded(candidatesCount - 1, _name);\r\n    }\r\n\r\n    constructor() {\r\n        admin = msg.sender;\r\n    }\r\n\r\n    function getCandidate(\r\n        uint256 _candidateId\r\n    ) public view returns (string memory) {\r\n        require(_candidateId < candidatesCount, \"Invalid candidate ID\");\r\n        return candidates[_candidateId].name;\r\n    }\r\n\r\n    function vote(uint256 _candidateId) public {\r\n        require(_candidateId < candidatesCount, \"Invalid candidate ID\");\r\n        require(!voters[msg.sender].hasVoted, \"You have already voted\");\r\n\r\n        // Allow voting for the pre-defined candidates only\r\n        require(\r\n            _candidateId >= 0 && _candidateId <= 3,\r\n            \"Invalid candidate selection\"\r\n        );\r\n\r\n        voters[msg.sender].hasVoted = true;\r\n        voters[msg.sender].votedCandidateId = _candidateId;\r\n        candidates[_candidateId].voteCount++;\r\n\r\n        emit VoteCast(msg.sender, _candidateId);\r\n    }\r\n\r\n    function getVoteCount(uint256 _candidateId) public view returns (uint256) {\r\n        require(_candidateId < candidatesCount, \"Invalid candidate ID\");\r\n        return candidates[_candidateId].voteCount;\r\n    }\r\n}\r\n",
  "sourcePath": "E:\\BCT_Solidity\\truffle\\contracts\\voting_contract.sol",
  "compiler": {
    "name": "solc",
    "version": "0.8.0+commit.c7dfd78e.Emscripten.clang"
  },
  "schemaVersion": "3.4.15",
  "updatedAt": "2023-08-28T09:46:56.264Z",
  "networkType": "ethereum",
  "devdoc": {
    "kind": "dev",
    "methods": {},
    "version": 1
  },
  "userdoc": {
    "kind": "user",
    "methods": {},
    "version": 1
  }
}